:100000000C9434000C9449000C9449000C94490061
:100010000C9449000C9449000C9449000C9449003C
:100020000C9449000C9449000C9449000C9449002C
:100030000C9449000C9449000C9449000C9449001C
:100040000C9449000C9449000C9449000C9449000C
:100050000C9449000C9449000C9449000C944900FC
:100060000C9449000C94490011241FBECFEFD8E036
:10007000DEBFCDBF11E0A0E0B1E0E6E9F9E002C0EB
:1000800005900D92AE30B107D9F70E9463010C9430
:10009000C9040C940000813051F028F0823059F0EE
:1000A000833069F011C084EA8093BC000DC084E8FD
:1000B0008093BC0009C084EC8093BC0005C084E937
:1000C0008093BC0080E008958091BC008823E4F711
:1000D0008091B900887F08950F931F93CF93DF938A
:1000E000082F162FD42F80E001C08C2FC1E0C80F3D
:1000F0008233E0F480E00E944B008833B1F3883013
:1001000011F08031A9F4812F8E70902F907F892B70
:100110008D2B8093BB0081E00E944B00803229F33D
:10012000883319F3883131F08FEF05C08FEF03C0AA
:100130008FEF01C080E0DF91CF911F910F91089563
:1001400083E00E944B0008958093BB0081E00E94F1
:100150004B00883211F08FEF089580E00895CF931F
:10016000DF93EC01662331F082E00E944B00803582
:1001700059F405C081E00E944B00883539F4809124
:10018000BB00888380E003C08FEF01C08FEFDF9159
:10019000CF910895CF93DF93D82FC62F40E062E030
:1001A00070E080E490E00E946C008D2F0E94A4001B
:1001B0008C2F0E94A4000E94A000DF91CF9108958F
:1001C0001092B90080E38093B80008951092C500A2
:1001D00087E68093C40088E18093C10086E0809325
:1001E000C20008959091C00095FFFCCF8093C60097
:1001F000089540E060E070E080E990E00E946C00CB
:100200008EEE0E94A4000E94A0000895CF93DF9379
:100210001F92CDB7DEB740E060E070E080E990E08B
:100220000E946C008AEA0E94A40041E060E070E055
:1002300080E990E00E946C0060E0CE0101960E948F
:10024000AF000E94A00089810F90DF91CF910895A7
:100250000F931F93CF93DF93CDB7DEB764970FB69D
:10026000F894DEBF0FBECDBF1F928F938AE091E05E
:100270009F938F931F9284E18F93CE0101969F935A
:100280008F930E94D1010FB6F894DEBF0FBECDBF91
:1002900000E010E004C00E94F2000F5F1F4FE1E099
:1002A000F0E0EC0FFD1FE00FF11F80818111F3CF13
:1002B00064960FB6F894DEBF0FBECDBFDF91CF912D
:1002C0001F910F910895CF93DF93CDB7DEB72A9793
:1002D0000FB6F894DEBF0FBECDBF0E94E0000E94B3
:1002E000E60060E080E00E94CA0060E089E00E94D1
:1002F000CA000E94F90089EF90E00197F1F700C071
:1003000000008AE0E0E0F1E0DE01119601900D923C
:100310008A95E1F70E940601182F0E942801812F7B
:1003200090E06AE070E00E94A901E1E0F0E0EC0FEB
:10033000FD1FE80FF91F608189E00E94CA009FE35A
:100340002DE083E0915020408040E1F700C00000A4
:10035000E1CF97FB072E16F4009407D077FD09D064
:100360000E94BD0107FC05D03EF4909581959F4FFA
:100370000895709561957F4F0895AA1BBB1B51E1AD
:1003800007C0AA1FBB1FA617B70710F0A61BB70B05
:10039000881F991F5A95A9F780959095BC01CD01AA
:1003A0000895AEE0B0E0E7EDF1E00C94A0040D8913
:1003B0001E898F89988D26E02C831A83098397FFE5
:1003C00002C080E090E801979E838D83AE01455E78
:1003D0005F4F698D7A8DCE0101960E9401024D8199
:1003E0005E8157FD0AC02F813885421753070CF4F0
:1003F0009A01F801E20FF31F10822E96E4E00C94AC
:10040000BC04ABE0B0E0E7E0F2E00C9492046C01D5
:100410007B018A01FC0117821682838181FFCCC196
:10042000CE0101963C01F6019381F70193FD859180
:1004300093FF81917F01882309F4BAC1853239F491
:1004400093FD859193FF81917F01853229F4B60157
:1004500090E00E94F803E7CF912C212C312CFFE192
:10046000F315D8F08B3279F038F4803279F083329A
:10047000A1F4232D20611DC08D3261F0803369F419
:10048000232D216016C0832D8260382EE32DE46079
:100490003E2E2AC0F32DF8601DC037FC2DC020ED84
:1004A000280F2A3040F08E32B9F436FC81C1232D5A
:1004B0002064322E19C036FE06C08AE0989E200DB8
:1004C0001124922E11C0EAE02E9E200D1124222E1E
:1004D000F32DF0623F2E08C08C3621F4832D806806
:1004E000382E02C0883641F4F70193FD859193FFC1
:1004F00081917F018111B3CF982F9F7D95549330C7
:1005000028F40C5F1F4F9FE399830DC0833631F0B1
:10051000833771F0833509F059C021C0F80180811B
:1005200089830E5F1F4F88248394912C530113C03D
:100530002801F2E04F0E511CF801A080B18036FE78
:1005400003C0692D70E002C06FEF7FEFC5010E940C
:10055000ED034C018201F32DFF773F2E16C02801D9
:1005600022E0420E511CF801A080B18036FE03C08B
:10057000692D70E002C06FEF7FEFC5010E94E203BA
:100580004C01F32DF0683F2E820133FC1BC0822DFD
:1005900090E088169906B0F4B60180E290E00E94DF
:1005A000F8032A94F4CFF50137FC859137FE819149
:1005B0005F01B60190E00E94F80321102A9421E027
:1005C000821A91088114910471F7E8C0843611F001
:1005D000893641F5F80137FE07C06081718182815B
:1005E00093810C5F1F4F08C060817181072E000C42
:1005F000880B990B0E5F1F4FF32DFF763F2E97FF51
:1006000009C090958095709561957F4F8F4F9F4F52
:10061000F0683F2E2AE030E0A3010E943404882EC7
:10062000861845C0853731F4232D2F7EB22E2AE05F
:1006300030E025C0932D997FB92E8F36C1F018F484
:10064000883579F0B5C0803719F0883721F0B0C00F
:10065000E92FE061BE2EB4FE0DC0FB2DF460BF2E6D
:1006600009C034FE0AC0292F2660B22E06C028E039
:1006700030E005C020E130E002C020E132E0F801C6
:10068000B7FE07C060817181828193810C5F1F4F2B
:1006900006C06081718180E090E00E5F1F4FA30172
:1006A0000E943404882E8618FB2DFF773F2E36FEDD
:1006B0000DC0232D2E7FA22E891458F434FE0BC0BA
:1006C00032FC09C0832D8E7EA82E05C0B82CA32C29
:1006D00003C0B82C01C0B92CA4FE0FC0FE01E80D68
:1006E000F11D8081803321F49A2D997EA92E09C0B5
:1006F000A2FE06C0B394B39404C08A2D867809F094
:10070000B394A3FC11C0A0FE06C0B21488F4280C58
:10071000922C9B180EC0B21460F4B60180E290E0F7
:100720000E94F803B394F7CFB21418F42B1802C048
:10073000982C212CA4FE10C0B60180E390E00E940A
:10074000F803A2FE17C0A1FC03C088E790E002C036
:1007500088E590E0B6010CC08A2D867859F0A1FE9C
:1007600002C08BE201C080E2A7FC8DE2B60190E0FE
:100770000E94F803891438F4B60180E390E00E94E7
:10078000F8039A94F7CF8A94F301E80DF11D808164
:10079000B60190E00E94F8038110F5CF222009F401
:1007A00042CEB60180E290E00E94F8032A94F6CF90
:1007B000F6018681978102C08FEF9FEF2B96E2E1D1
:1007C0000C94AE04FC010590615070400110D8F704
:1007D000809590958E0F9F1F0895FC016150704089
:1007E00001900110D8F7809590958E0F9F1F089566
:1007F0000F931F93CF93DF93FB01238121FD03C050
:100800008FEF9FEF2CC022FF16C0468157812481B5
:1008100035814217530744F4A081B1819D012F5FB8
:100820003F4F318320838C93268137812F5F3F4F49
:100830003783268314C08B01EC01FB010084F18512
:10084000E02D0995892BE1F6D80116968D919C91A2
:100850001797019617969C938E931697CE01DF916A
:10086000CF911F910F910895FA01AA27283051F1D5
:10087000203181F1E8946F936E7F6E5F7F4F8F4FD1
:100880009F4FAF4FB1E03ED0B4E03CD0670F781F30
:10089000891F9A1FA11D680F791F8A1F911DA11D15
:1008A0006A0F711D811D911DA11D20D009F468944E
:1008B0003F912AE0269F11243019305D3193DEF6F6
:1008C000CF010895462F4770405D4193B3E00FD0AC
:1008D000C9F7F6CF462F4F70405D4A3318F0495D97
:1008E00031FD4052419302D0A9F7EACFB4E0A6957A
:1008F0009795879577956795BA95C9F7009761059C
:10090000710508959B01AC010A2E069457954795F1
:1009100037952795BA95C9F7620F731F841F951FE6
:10092000A01D08952F923F924F925F926F927F92F7
:100930008F929F92AF92BF92CF92DF92EF92FF92EF
:100940000F931F93CF93DF93CDB7DEB7CA1BDB0B9B
:100950000FB6F894DEBF0FBECDBF09942A88398840
:1009600048885F846E847D848C849B84AA84B98447
:10097000C884DF80EE80FD800C811B81AA81B98153
:10098000CE0FD11D0FB6F894DEBF0FBECDBFED0167
:060990000895F894FFCF6A
:0E09960081CF9286CCA4A08F808425750A00A4
:00000001FF
